:1008DD00F2F3F5F5F6F7F8F9F9FAFAFBFBFCFCFC87
:1008ED00FDFDFDFDFEFEFEFEFEFEFEFF42C117B646
:1008FD00D0D1B621E18CD868E95B8FEE446BB4F4AE
:08090D002D4777A2B6DAFA16B5
:03093000010800BB
:03000B00020927C0
:09092700758CD8758AEF150832B1
:10091500EF75F003A4FFAEF0EF1F70011E144E70CB
:01092500F7DA
:0109260022AE
:03093400DFFE22C1
:10088C00E4FD53890F438901758CD8758AEF75A8DF
:10089C0082ED9008DD93FE7008FD7FE8120934802C
:1008AC00F0BEFF0A0D7F64120934C28C80E3AF05E1
:1008BC000DEF9008DD93FCAF050DEF93F508D28C8E
:1008CC00E5086009B295AF0412091580F3C28C805B
:0108DC00C05B
:03000000020800F3
:0C080000787FE4F6D8FD758108020847F7
:10080C0002088CE493A3F8E493A34003F68001F26E
:10081C0008DFF48029E493A3F85407240CC8C333ED
:10082C00C4540F4420C8834004F456800146F6DFBC
:10083C00E4800B0102040810204080900930E47E13
:10084C00019360BCA3FF543F30E509541FFEE493B1
:10085C00A360010ECF54C025E060A840B8E493A378
:10086C00FAE493A3F8E493A3C8C582C8CAC583CAA3
:10087C00F0A3C8C582C8CAC583CADFE9DEE780BE5B
:0109330000C3
:00000001FF
