:10080000120B90120B28120B05E5107006120B410B
:100810000208CE20B126120B6520B10C050FE50FA2
:10082000C394074003E4F50FE511C39432500A2046
:10083000B107120B65051180EFE4F51130B003022A
:1008400008CE120B6520B0727408250FF8067408E4
:10085000250FF8E6540FD394094004740626F67465
:1008600008250FF8E6C394604008E50F9402500293
:10087000E4F67408250FF8E6C394244007E50FB4A6
:100880000202E4F67408250FF8E6C394324007E547
:100890000FB40302E4F67408250FF8E6C39413407E
:1008A00007E50FB40402E4F67408250FF8E6C394D4
:1008B000074007E50FB405027601E511C3943250F5
:1008C0000A20B007120B65051180EFE4F51112083C
:0408D000D40208093D
:1008D4007FC0120B72E50AC4540F2430FF120B7C44
:1008E400E50A540F2430FF120B7C7F2D120B7CE59C
:1008F40009C4540F2430FF120B7CE509540F243033
:10090400FF120B7C7F2D120B7CE508C4540F24309E
:10091400FF120B7CE508540F2430FF120B7C7F8000
:10092400120B727F32120B7C7F30120B7CE50EC4EB
:10093400540F2430FF120B7CE50E540F2430FF12A9
:100944000B7C7F2D120B7CE50CC4540F2430FF125A
:100954000B7CE50C540F2430FF120B7C7F2D120B03
:100964007CE50BC4540F2430FF120B7CE50B540FB1
:100974002430FF120B7C7F8D120B72E50D5407247B
:0509840030FF020B7CB6
:070B9000D288D2A8D2AF22E7
:03000300020A5F8F
:100A5F00C0E0C0F0C083C082C0D075D000C000C05D
:100A6F0001C002C003C004C005C006C007120B6559
:100A7F0020B2096310FF750F00120B05D007D006C7
:100A8F00D005D004D003D002D001D000D0D0D08276
:070A9F00D083D0F0D0E0325B
:0C0B65007F017E267D82DDFEDEFADFF6D9
:010B71002261
:100ADB00C2A58F807F017E00120AECD2A77F057E14
:010AEB00000A
:100AEC00D3EF9400EE9400400F7DC77C01DCFEDD5B
:080AFC00FAEF1F70EB1E80E809
:010B040022CE
:0A0B7200C2A7C2A6120ADBC2A72226
:0A0B7C00C2A7D2A6120ADBC2A7220C
:100B28007F38120B727F0C120B727F06120B727FCA
:090B380001120B727F80020B72A6
:0E0B570081838587898B8D80828486888A8C35
:090B860007080000120411051714
:100AA600C2B500C2B600D2B500E4FEEF1392B4EFB1
:100AB600C313FFD2B600C2B6000EBE08EEE4FEEDCA
:100AC6001392B4EDC313FDD2B600C2B6000EBE0833
:040AD600EEC2B500B7
:010ADA0022F9
:100A1500C2B500C2B600D2B500E4FDEF1392B4EF43
:100A2500C313FFD2B600C2B6000DBD08EE00E4FD4B
:100A3500A2B4E433FFC43333335480FCEEC3134C08
:100A4500FED2B600C2B6000DBD08E5C2B500D2B6ED
:090A550000C2B400D2B400AF06E7
:010A5E002275
:100B0500E4FD7F8E120AA6E4FCEC900B5E93FF7465
:100B1500082CF8E6FD120AA60CBC07ED7D807F8E39
:030B2500020AA61B
:100B4100E4FBEB900B5793FF120A1574082BF8A6E0
:050B5100070BBB07EDDE
:010B5600227C
:0300000002098969
:0C098900787FE4F6D8FD7581110209D0DA
:10099500020800E493A3F8E493A34003F68001F270
:1009A50008DFF48029E493A3F85407240CC8C33363
:1009B500C4540F4420C8834004F456800146F6DF32
:1009C500E4800B0102040810204080900B86E47E31
:1009D500019360BCA3FF543F30E509541FFEE49327
:1009E500A360010ECF54C025E060A840B8E493A3EE
:1009F500FAE493A3F8E493A3C8C582C8CAC583CA19
:100A0500F0A3C8C582C8CAC583CADFE9DEE780BED0
:010B8F000065
:00000001FF
